:1000000000000420BD020000E5020000E70200003D
:10001000E9020000EB020000ED0200000000000019
:10002000000000000000000000000000EF020000DF
:10003000F102000000000000F3020000F5020000E1
:10004000F7020000F7020000F7020000F7020000CC
:10005000F7020000F7020000F7020000F7020000BC
:10006000F7020000F7020000F7020000F7020000AC
:10007000F7020000F7020000F7020000F70200009C
:10008000F7020000F7020000F7020000F70200008C
:10009000F7020000F7020000F7020000F70200007C
:1000A000F7020000F7020000F7020000F70200006C
:1000B000F7020000F702000000000000000000004E
:1000C000F7020000F7020000F7020000F70200004C
:1000D000F7020000F7020000F7020000F70200003C
:1000E000F7020000F7020000F70200000000000025
:1000F00000000000F702000000000000F70200000E
:1001000000000000000000000000000000000000EF
:1001100000000000000000000000000000000000DF
:1001200000000000000000000000000000000000CF
:1001300000000000000000000000000000000000BF
:1001400000000000000000000000000000000000AF
:10015000000000000000000000000000000000009F
:10016000000000000000000000000000000000008F
:10017000000000000000000000000000000000007F
:10018000000000000000000000000000000000006F
:10019000000000000000000000000000000000005F
:1001A000000000000000000000000000000000004F
:1001B000000000000000000000000000000000003F
:1001C000000000000000000000000000000000002F
:1001D000000000000000000000000000000000001F
:1001E000000000000000000000000000000000000F
:1001F00000000000000000000000000000000000FF
:1002000010B5054C237833B9044B13B10448AFF350
:1002100000800123237010BD6C000020000000004E
:10022000D805000008B5034B1BB103490348AFF3E1
:10023000008008BD0000000070000020D80500000C
:10024000A3F5803A704700BF174B002B08BF134B34
:100250009D46FFF7F5FF00218B460F461348144AD1
:10026000121A00F09FF90E4B002B00D098470D4B4F
:10027000002B00D098470020002104000D000D48FD
:10028000002802D00C48AFF3008000F067F920008E
:10029000290000F031F800F04DF900BF000008001F
:1002A0000000000000000000000004206C0000209E
:1002B0008800002000000000000000000649074AF6
:1002C000074B9B1A03DD043BC858D050FBDC00F001
:1002D00021F8FFF7B9FF0000E4050000000000204E
:1002E0006C000020FEE7FEE7FEE7FEE7FEE7FEE724
:1002F000FEE7FEE7FEE7FEE74FF0A0434FF40052B3
:100300000C21C3F81825C3F80C25C3F82C1720BFFF
:10031000FDE700BF10B4754B1B68082B1CD0744A56
:10032000D2F8883043F47003C2F88830BFF34F8F9F
:10033000BFF36F8F4FF01023D3F80022002AC0F2D2
:10034000A380D3F80432002BC0F29E80694B6A4A26
:100350001A605DF8044B70474FF080414FF08052B7
:100360000020C1F80C01654BC1F81001C1F8380537
:10037000D2F80414C3F82015D2F80814C3F82415D1
:10038000D2F80C14C3F82815D2F81014C3F82C15A1
:10039000D2F81414C3F83015D2F81814C3F8341571
:1003A000D2F81C14C3F84015D2F82014C3F8441531
:1003B000D2F82414C3F84815D2F82814C3F84C1501
:1003C000D2F82C14C3F85015D2F83014C3F85415D1
:1003D000D2F83414C3F86015D2F83814C3F8641591
:1003E000D2F83C04C3F868054549D2F84004C3F884
:1003F0006C050968D2F84424C3F87025032937D85E
:10040000404B5B5C13B1404B404A1A60404B5B5C15
:1004100063B1364B3F491B68394AFB20C1F81805C8
:10042000082B11687FF47BAF032921D83A4B5B5C22
:1004300093B13A483A4B2D4C02681B682468304906
:1004400022F00F0203F00F031343082C0968036026
:100450007FF465AF03290BD8324B5B5C43B1234B70
:10046000314A1B684FF40071082B11607FF457AFBD
:100470004FF08043D3F80024D2077FF550AF6FF0E0
:100480000102C3F800244AE7284A0123C2F80435D0
:10049000D2F80034002BFBD04FF010231221234A56
:1004A000C3F80012D2F80034002BFBD04FF0102319
:1004B00012211E4AC3F80412D2F80034002BFBD0DC
:1004C00000231A49C2F80435D1F80034002BFBD0C0
:1004D000BFF34F8F0649164BCA6802F4E06213431C
:1004E000CB60BFF34F8F00BFFDE700BF30010010AE
:1004F00000ED00E0000000200090D00300C00040AC
:1005000034010010D00500008C56004048810300E3
:10051000D005000000F00040D0050000E40E0040CF
:1005200058020010D00500004096024000E0014053
:100530000400FA0508B5074B044613B10021AFF3D8
:100540000080054B1868836A03B19847204600F085
:1005500031F800BF00000000D405000070B50D4D5B
:100560000D4C641BA4100026A64209D10B4D0C4C67
:1005700000F022F8641BA4100026A64205D170BD2D
:1005800055F8043B98470136EEE755F8043B984789
:100590000136F2E7640000206400002064000020BF
:1005A0006800002002440346934200D1704703F8DC
:1005B000011BF9E7FEE700BFF8B500BFF8BC08BCB7
:1005C0009E467047F8B500BFF8BC08BC9E46704711
:0C05D000010000000400002000000000FA
:0805DC0064FCFF7F0100000038
:1005E4000090D003000000000000000000000000A4
:1005F40000000000000000000000000000000000F7
:1006040000000000000000000000000000000000E6
:1006140000000000000000000000000000000000D6
:1006240000000000000000000000000000000000C6
:1006340000000000000000000000000000000000B6
:0C06440000000000250200000102000080
:04000003000002BD3A
:00000001FF
