:1000000000600020BD020000110300001303000087
:100010001503000017030000190300000000000092
:100020000000000000000000000000001B030000B2
:100030001D030000000000001F030000210300005A
:100040002303000023030000230300002303000018
:10005000230300000000000023030000230300002E
:1000600023030000230300002303000023030000F8
:1000700023030000230300002303000023030000E8
:1000800023030000230300002303000023030000D8
:1000900023030000230300002303000023030000C8
:1000A0002303000023030000000000000000000004
:1000B00023030000230300000000000000000000F4
:1000C0000000000000000000000000000000000030
:1000D0000000000000000000000000000000000020
:1000E0000000000000000000000000000000000010
:1000F0000000000000000000000000000000000000
:1001000000000000000000000000000000000000EF
:1001100000000000000000000000000000000000DF
:1001200000000000000000000000000000000000CF
:1001300000000000000000000000000000000000BF
:1001400000000000000000000000000000000000AF
:10015000000000000000000000000000000000009F
:10016000000000000000000000000000000000008F
:10017000000000000000000000000000000000007F
:10018000000000000000000000000000000000006F
:10019000000000000000000000000000000000005F
:1001A000000000000000000000000000000000004F
:1001B000000000000000000000000000000000003F
:1001C000000000000000000000000000000000002F
:1001D000000000000000000000000000000000001F
:1001E000000000000000000000000000000000000F
:1001F00000000000000000000000000000000000FF
:1002000010B5054C237833B9044B13B10448AFF350
:1002100000800123237010BD6C000020000000004E
:10022000E807000008B5034B1BB103490348AFF3CF
:10023000008008BD0000000070000020E8070000FA
:10024000A3F5803A704700BF174B002B08BF134B34
:100250009D46FFF7F5FF00218B460F461348144AD1
:10026000121A00F0A3FA0E4B002B00D098470D4B4A
:10027000002B00D098470020002104000D000D48FD
:10028000002802D00C48AFF3008000F06BFA200089
:10029000290000F047F800F051FA00BF0000080004
:1002A0000000000000000000006000206C00002042
:1002B0008800002000000000000000000E480068D8
:1002C0000E4909680A280AD1002908D10C48026899
:1002D0006FF070031A404FF040031A43026009495F
:1002E000094A0A4B9B1A03DD043BC858D050FBDC7B
:1002F00000F044F8FFF7A8FF3001001034010010AF
:10030000E40E0040F4070000000000206C00002014
:10031000FEE7FEE7FEE7FEE7FEE7FEE7FEE7FEE7B5
:10032000FEE7FEE74FF0804303220121C3F80029D6
:10033000C3F81029C3F82029C3F83029C3F840298D
:10034000C3F85029C3F86029C3F87029C3F8001511
:10035000BFF34F8F20BFFDE7BFF34F8F0549064B1B
:10036000CA6802F4E0621343CB60BFF34F8F00BF53
:10037000FDE700BF00ED00E00400FA0538B5AA4B28
:100380001B68581C04BFA94B1B78062B05D1A84B32
:10039000A84A1B68C3F304231360A44B1B78062BE5
:1003A00000F00881A04B1B68591C04BF9F4B1B78B1
:1003B000062B00F094800A2B00F091809B4B1B7859
:1003C000062B00F09780984B1B685A1C04BF974B74
:1003D0001B78062B58D00A2B56D0944B1B78062B33
:1003E0005FD0914B1A68551C00F00B81924B1B6833
:1003F0001146062900F091800A2900F09180541CD2
:1004000004BF8A4B1A78062A25D00A2A31D0864B97
:10041000894A1B681268062B00F0E6800A2B00F060
:10042000DA804FF01023D3F80022002AC0F238817E
:10043000D3F80432002BC0F23381804B1B68DA07FB
:1004400000F154817E4B1B68DB0700F14F817D4B2F
:100450007D4A1A6038BD7D4B734A1B6812687C491F
:1004600003F04F03501C0B6004BF704B1A78062A30
:10047000CBD14FF08043D3F80024D10744BF6FF0B5
:100480000102C3F80024C2E74FF080430022C3F802
:100490000C21C3F81021C3F83825644B1B78062BB8
:1004A0009FD16C4B1B68C3F30313033B032B98D8FA
:1004B000694AD25C12B1694A03211160684AD35C6F
:1004C000002B8ED0674A684C6849694B0520106044
:1004D000012500203F22256008601A6081E7654BF6
:1004E000654A1B68C3F342331360504B1B78062BDD
:1004F0007FF469AF574B1B68C3F30313033B032B14
:100500003FF661AF5D4AD35C002B3FF45CAF5C4AC1
:10051000D36823F08073D36055E7033B032B77D96F
:100520004FF08052574BD2F80414C3F82015D2F87C
:100530000814C3F82415D2F80C14C3F82815D2F8FF
:100540001014C3F82C15D2F81414C3F83015D2F8CF
:100550001814C3F83415D2F81C14C3F84015D2F897
:100560002014C3F84415D2F82414C3F84815D2F85F
:100570002814C3F84C15D2F82C14C3F85015D2F82F
:100580003014C3F85415D2F83414C3F86015D2F8F7
:100590003814C3F86415D2F83C14C3F86815D2F8BF
:1005A00040142148C3F86C15D2F844140268C3F80B
:1005B000701524E7274B1B68C3F30313033B032B7E
:1005C0003FF6F0AE304AD35C002B3FF4EBAE2F4B3E
:1005D0002F4A1A60E6E6002A3FF423AF1C4A13684C
:1005E00043F00F0313601CE7033A032A16D9294886
:1005F0000D4B0168104A1B68126841F4806101606C
:100600000CE7144B09491B680978C3F30313F0E6A0
:100610002149CB5C002B3FF4F2AE81E71F4B9B5C82
:10062000002B3FF4FEAEE2E730010010E00F00F0D7
:100630002403001040350140340100100012001066
:1006400004120010000000200090D0035802001097
:10065000E40E0040E80F00F0E0070000A0050040B5
:10066000E007000010560040885600401856004031
:1006700014560040440200103C050040E007000012
:10068000F0ED00E000C00040E007000074C007404B
:100690000DF0ADBA3C170040D8070000DC070000A1
:1006A000234A0123C2F80435D2F80034002BFBD0D2
:1006B0004FF0102315211E4AC3F80012D2F800345F
:1006C000002BFBD04FF010231521194AC3F8041258
:1006D000D2F80034002BFBD000231549C2F80435B2
:1006E000D1F80034002BFBD0FFF736FE104A01236F
:1006F000C2F80435D2F80034002BFBD00D4B0C4A65
:1007000000211960D2F80034002BFBD00A4B084AB4
:1007100000211960D2F80034002BFBD000230449DB
:10072000C2F80435D1F80034002BFBD0DCE700BF61
:1007300000E00140001200100412001008B5074B41
:10074000044613B10021AFF30080054B1868836A9B
:1007500003B19847204600F031F800BF00000000C8
:10076000E407000070B50D4D0D4C641BA41000266D
:10077000A64209D10B4D0C4C00F022F8641BA410CA
:100780000026A64205D170BD55F8043B98470136B6
:10079000EEE755F8043B98470136F2E76400002085
:1007A000640000206400002068000020024403462A
:1007B000934200D1704703F8011BF9E7FEE700BF41
:1007C000F8B500BFF8BC08BC9E467047F8B500BF3E
:1007D000F8BC08BC9E467047000001010000000103
:0C07E000010000000400002000000000E8
:0807EC0054FAFF7F0100000038
:1007F4000090D00300000000000000000000000092
:1008040000000000000000000000000000000000E4
:1008140000000000000000000000000000000000D4
:1008240000000000000000000000000000000000C4
:1008340000000000000000000000000000000000B4
:1008440000000000000000000000000000000000A4
:0C0854000000000025020000010200006E
:04000003000002BD3A
:00000001FF
