:1000000000000120BD020000E5020000E702000040
:10001000E9020000EB020000ED0200000000000019
:10002000000000000000000000000000EF020000DF
:10003000F102000000000000F3020000F5020000E1
:10004000F7020000F7020000F7020000F7020000CC
:10005000F7020000F7020000F7020000F7020000BC
:10006000F7020000F7020000F7020000F7020000AC
:10007000F7020000F7020000F7020000F70200009C
:10008000F7020000F7020000F7020000F70200008C
:10009000F7020000F7020000F7020000F70200007C
:1000A000F7020000F7020000F7020000F70200006C
:1000B000F7020000F702000000000000000000004E
:1000C000F7020000F7020000F7020000F70200004C
:1000D000F7020000F7020000F70200000000000035
:1000E0000000000000000000000000000000000010
:1000F0000000000000000000000000000000000000
:1001000000000000000000000000000000000000EF
:1001100000000000000000000000000000000000DF
:1001200000000000000000000000000000000000CF
:1001300000000000000000000000000000000000BF
:1001400000000000000000000000000000000000AF
:10015000000000000000000000000000000000009F
:10016000000000000000000000000000000000008F
:10017000000000000000000000000000000000007F
:10018000000000000000000000000000000000006F
:10019000000000000000000000000000000000005F
:1001A000000000000000000000000000000000004F
:1001B000000000000000000000000000000000003F
:1001C000000000000000000000000000000000002F
:1001D000000000000000000000000000000000001F
:1001E000000000000000000000000000000000000F
:1001F00000000000000000000000000000000000FF
:1002000010B5054C237833B9044B13B10448AFF350
:1002100000800123237010BD6C000020000000004E
:100220002407000008B5034B1BB103490348AFF393
:10023000008008BD000000007000002024070000BE
:10024000A3F5803A704700BF174B002B08BF134B34
:100250009D46FFF7F5FF00218B460F461348144AD1
:10026000121A00F041FA0E4B002B00D098470D4BAC
:10027000002B00D098470020002104000D000D48FD
:10028000002802D00C48AFF3008000F009FA2000EB
:10029000290000F031F800F0EFF900BF000008007D
:1002A0000000000000000000000001206C000020A1
:1002B0008800002000000000000000000649074AF6
:1002C000074B9B1A03DD043BC858D050FBDC00F001
:1002D00015F8FFF7B9FF000030070000000000200C
:1002E0006C000020FEE7FEE7FEE7FEE7FEE7FEE724
:1002F000FEE7FEE7FEE7FEE720BFFDE730B4A54BD3
:100300001B68591C04BFA44B1B78062B05D1A34BBB
:10031000A34A1B68C3F3042313609F4B1B78062B6F
:1003200000F0F8809B4B1B685A1C04BF9A4B1B784B
:10033000062B05D19B4B9C4A1B68C3F342331360C9
:10034000954B1B78062B00F0D280924B1B685D1CEE
:1003500004BF914B1B78062B08D14FF0804300223D
:10036000C3F80C21C3F81021C3F838258A4B1B7839
:10037000062B00F09C80874B1A68541C1FD08B4BB7
:10038000062A1B6823D08A4AD2F8883043F47003C7
:10039000C2F88830BFF34F8FBFF36F8F4FF0102339
:1003A000D3F80022002AC0F22F81D3F80432002BA8
:1003B000C0F22A817F4B804A1A6030BC7047764970
:1003C0007E4B09781B680629DDD1C3F30313033B79
:1003D000032B40F2B6804FF08052794BD2F80414D0
:1003E000C3F82015D2F80814C3F82415D2F80C1459
:1003F000C3F82815D2F81014C3F82C15D2F8141429
:10040000C3F83015D2F81814C3F83415D2F81C14F8
:10041000C3F84015D2F82014C3F84415D2F82414B8
:10042000C3F84815D2F82814C3F84C15D2F82C1488
:10043000C3F85015D2F83014C3F85415D2F8341458
:10044000C3F86015D2F83814C3F86415D2F83C1418
:10045000C3F86815D2F840144E48C3F86C15D2F8AA
:1004600044140268C3F87015501C00F08C80062AF2
:1004700089D1544B474A1B685349126803F04F0314
:100480000B60511C62D0062A7FF47DAF4FF0804391
:10049000D3F80034DA0765D4444B1B68033B032BC5
:1004A00049D94A4A136843F4806313606BE7434BAE
:1004B0001B68C3F30313033B032B3FF65CAF444AB3
:1004C000D25C12B1434A03211160434AD35C002B32
:1004D0003FF451AF414A424C4249434B0520106022
:1004E000012500203F22256008601A6043E7334B56
:1004F0001B68C3F30313033B032B3FF626AF3B4AB2
:10050000D35C002B3FF421AF394AD36823F08073CA
:10051000D3601AE7294B1B68C3F30313033B032B78
:100520003FF600AF334AD35C002B3FF4FBAE324BB7
:10053000324A1A60F6E6324AD35C002B3FF423AF0E
:10054000AFE73049CB5C002B8ED044E7124B1B78D1
:10055000062B7FF418AF4FF08043D3F80034DB074D
:100560007FF511AF0B4B1B684FF080426FF001011C
:10057000062BC2F800147FF406AF0C4B1B68033B3C
:10058000032B8ED8D7E7044B1B78062B3FF471AFB3
:10059000F9E600BF30010010E00F00F02403001066
:1005A00040350140440200103C0500403401001079
:1005B00000ED00E0000000200090D003E80F00F004
:1005C00000C0004058020010E40E00403C170040FC
:1005D0001C070000A00500401C070000105600404A
:1005E0008856004018560040145600401C07000072
:1005F000F0ED00E01C07000074C007400DF0ADBA3C
:100600001807000014070000184A0123C2F8043537
:10061000D2F80034002BFBD04FF010231521134AE1
:10062000C3F80012D2F80034002BFBD04FF0102397
:1006300015210E4AC3F80412D2F80034002BFBD067
:1006400000230A49C2F80435D1F80034002BFBD04E
:10065000BFF34F8F0649074BCA6802F4E0621343A9
:10066000CB60BFF34F8F00BFFDE700BF00E001404C
:1006700000ED00E00400FA0508B5074B044613B18D
:100680000021AFF30080054B1868836A03B19847D7
:10069000204600F031F800BF0000000020070000F5
:1006A00070B50D4D0D4C641BA4100026A64209D157
:1006B0000B4D0C4C00F022F8641BA4100026A6423F
:1006C00005D170BD55F8043B98470136EEE755F863
:1006D000043B98470136F2E76400002064000020E4
:1006E000640000206800002002440346934200D1C9
:1006F000704703F8011BF9E7FEE700BFF8B500BF3C
:10070000F8BC08BC9E467047F8B500BFF8BC08BCF2
:100710009E4670470000010100000001010000003A
:080720000400002000000000AD
:0807280018FBFF7F0100000037
:100730000090D00300000000000000000000000056
:1007400000000000000000000000000000000000A9
:100750000000000000000000000000000000000099
:100760000000000000000000000000000000000089
:100770000000000000000000000000000000000079
:100780000000000000000000000000000000000069
:0C07900000000000250200000102000033
:04000003000002BD3A
:00000001FF
